{
  "contractName": "Count",
  "abi": [
    {
      "inputs": [],
      "name": "count",
      "outputs": [
        {
          "internalType": "uint256",
          "name": "",
          "type": "uint256"
        }
      ],
      "stateMutability": "view",
      "type": "function",
      "constant": true
    },
    {
      "inputs": [],
      "name": "owner",
      "outputs": [
        {
          "internalType": "address",
          "name": "",
          "type": "address"
        }
      ],
      "stateMutability": "view",
      "type": "function",
      "constant": true
    },
    {
      "inputs": [],
      "name": "increment",
      "outputs": [
        {
          "internalType": "uint256",
          "name": "",
          "type": "uint256"
        }
      ],
      "stateMutability": "nonpayable",
      "type": "function"
    },
    {
      "inputs": [],
      "name": "getCount",
      "outputs": [
        {
          "internalType": "uint256",
          "name": "",
          "type": "uint256"
        }
      ],
      "stateMutability": "view",
      "type": "function",
      "constant": true
    }
  ],
  "bytecode": "0x60806040526000805534801561001457600080fd5b5061026c806100246000396000f3fe608060405234801561001057600080fd5b506004361061004c5760003560e01c806306661abd146100515780638da5cb5b1461006f578063a87d942c1461008d578063d09de08a146100ab575b600080fd5b6100596100c9565b604051610066919061013a565b60405180910390f35b6100776100cf565b6040516100849190610196565b60405180910390f35b6100956100f5565b6040516100a2919061013a565b60405180910390f35b6100b36100fe565b6040516100c0919061013a565b60405180910390f35b60005481565b600160009054906101000a900473ffffffffffffffffffffffffffffffffffffffff1681565b60008054905090565b6000600160008082825461011291906101e0565b92505081905550600054905090565b6000819050919050565b61013481610121565b82525050565b600060208201905061014f600083018461012b565b92915050565b600073ffffffffffffffffffffffffffffffffffffffff82169050919050565b600061018082610155565b9050919050565b61019081610175565b82525050565b60006020820190506101ab6000830184610187565b92915050565b7f4e487b7100000000000000000000000000000000000000000000000000000000600052601160045260246000fd5b60006101eb82610121565b91506101f683610121565b9250827fffffffffffffffffffffffffffffffffffffffffffffffffffffffffffffffff0382111561022b5761022a6101b1565b5b82820190509291505056fea264697066735822122089295cd6afd9ff7cce8d6b9dfe00604d5d9cab09198c4a9b7790c0b5e8f57d8964736f6c634300080d0033",
  "immutableReferences": {},
  "source": "// SPDX-License-Identifier: GPL-3.0\npragma solidity ^0.8.0;\n\ncontract Count {\n  uint public count = 0;\n  address public owner;\n\n  function increment() public returns (uint) {\n    count += 1;\n\n    return count;\n  }\n\n  function getCount() public view returns (uint) {\n    return count;\n  }\n}\n ",
  "sourcePath": "/Users/oker/private/learn_solidity/w1-1/contracts/Count.sol",
  "compiler": {
    "name": "solc",
    "version": "0.8.13+commit.abaa5c0e.Emscripten.clang"
  },
  "schemaVersion": "3.4.6",
  "updatedAt": "2022-03-27T06:46:45.062Z",
  "networkType": "ethereum",
  "devdoc": {
    "kind": "dev",
    "methods": {},
    "version": 1
  },
  "userdoc": {
    "kind": "user",
    "methods": {},
    "version": 1
  }
}